:060000000A128A11DF2F35
:10000A00831603130811881108128812081388131B
:10001A0000300A128A1525220A128A111A30F500AE
:10002A00F830F400F40B1728F50B172800000330FA
:10003A000A128A15B1210A128A110730F5007D3099
:10004A00F400F40B2628F50B262803300A128A1529
:10005A00B1210A128A110F30F5004730F400F40B6F
:10006A003428F50B3428392803300A128A15B121AD
:10007A000A128A1102300A128A15B1210A128A1149
:10008A0002300A128A15B1210A128A1108300A129C
:10009A008A15B1210A128A1100300A128A15B12171
:1000AA000A128A110C300A128A15B1210A128A110F
:1000BA0000300A128A15B1210A128A1106300A1270
:1000CA008A15B1210A128A110A128A1562210A12A4
:1000DA008A1108008312031341088039CB004108B2
:1000EA00C2004207D200C01F7B287C287D285214F8
:1000FA0052080319812882289228520A031D862849
:10010A0087288F280030C1000030C0000030BF00AF
:10011A000030BE00C017C1019A280030C10000306B
:10012A00C0000030BF000030BE003D088039C20068
:10013A004208CB063D08C2004207D300BC1FA628CE
:10014A00A728A828531453080319AC28AD28BD289A
:10015A00530A031DB128B228BA280030BD00003066
:10016A00BC000030BB000030BA00BC17BD01C52876
:10017A000030BD000030BC000030BB000030BA00C7
:10018A003D083C043B043A04031DCC28CD28E6284C
:10019A000030C1000030C0000030BF000030BE0097
:1001AA008030C0047F30C1044B08C2004208C10439
:1001BA004108BD004008BC003F08BB003E08BA0029
:1001CA00412A5208031DEA28EB28F4280030BD0012
:1001DA000030BC000030BB000030BA00412A52088F
:1001EA00C200C3014308C50053084202C400031CED
:1001FA00C50344087F3ECC0045080318013E003E73
:10020A00CD004108CA004008C9003F08C8003E089E
:10021A00C7000030C1000030C0000030BF0000300D
:10022A00BE000030D1000030D0000030CF000030D6
:10023A00CE00D3016A2953080319242925294529FF
:10024A000130C2000310C70DC80DC90DCA0DC20B7B
:10025A0027290130C2000310BE0DBF0DC00DC10D0C
:10026A00C20B3029D11F3A293B293C293E140130BF
:10027A00C2000310CE0DCF0DD00DD10DC20B3E29F9
:10028A003D084A02031D53293C084902031D53290C
:10029A003B084802031D53293A084702031C562902
:1002AA005729662951173A08C7023B08031C3B0F16
:1002BA00C8023C08031C3C0FC9023D08031C3D0F41
:1002CA00CA020130C2004208D3071A305302031C83
:1002DA006F29702920294A08490448044704031948
:1002EA007729782997294E1497290130C2000310DB
:1002FA00BE0DBF0DC00DC10DC20B7C29D11F8629B1
:10030A00872988293E140130C2000310CE0DCF0D73
:10031A00D00DD10DC20B8A29FF30CC070318CD0AA4
:10032A00FF30CD07C01F9A299B297A29D301D11FF3
:10033A009F29A029BC29FF304E05C200FF304F0576
:10034A00C300FF305005C4007F305105C500450881
:10035A004404430442040319B329B429B729D30135
:10036A00D30ABC293E1CBA29BB29BC29B429530883
:10037A000319C029C129F2290130BE070030031828
:10038A000130BF07003003180130C00700300318DE
:10039A000130C107411CD229D329F2293E08C200E3
:1003AA003F08C3004008C4004108C5000130C60028
:1003BA00450DC50CC40CC30CC20CC60BDD2945087F
:1003CA00C1004408C0004308BF004208BE00013013
:1003DA00CC070318CD0A0030CD074D08803AFF003C
:1003EA0080307F02031DFB29FF304C02031CFE29CB
:1003FA00FF290D2AFF3083120313CC000030CD00F1
:10040A000030C1000030C0000030BF000030BE0024
:10041A00831203134D08803AFF0080307F02031DC8
:10042A00182A01304C0203181B2A1C2A292A831273
:10043A000313CC01CD010030C1000030C0000030F0
:10044A00BF000030BE00CB01831203134C08D20058
:10045A00521C302A312A332AC017372A7F30C20069
:10046A004208C0055208C2000310420CC1004B08E2
:10047A00C2004208C104DD2808008312031357088A
:10048A008039E4005708DC005C07E600D61F4E2AD4
:10049A004F2A502A661466080319542A552A652ACF
:1004AA00660A031D592A5A2A622A0030D7000030E8
:1004BA00D6000030D5000030D400D617D7016D2AF7
:1004CA000030D7000030D6000030D5000030D4000C
:1004DA005B088039E500650864060319752A762ADF
:1004EA00772A64175B08DC005C07E500DA1F7E2ABE
:1004FA007F2A802A651465080319842A852A952A81
:10050A00650A031D892A8A2A922A0030DB000030F4
:10051A00DA000030D9000030D800DA17DB019D2A52
:10052A000030DB000030DA000030D9000030D8009B
:10053A00660865020318A22AA32AC92A641FA62AE2
:10054A00A72AAB2A8030DC005C08E4066608E700CC
:10055A006508E6006708E5005408E7005808D40073
:10056A006708D8005508E7005908D5006708D90078
:10057A005608E7005A08D6006708DA005708E70065
:10058A005B08D7006708DB00E7016508DC00DD01CE
:10059A005D08DF0066085C02DE00031CDF035F08FB
:1005AA00803AFF0080307F02031DDD2A1A305E0286
:1005BA00031CE02AE12A182B831203135708560456
:1005CA0055045404031DEA2AEC2A0130ED2A0030AE
:1005DA00E7000030D7000030D6000030D5000030E8
:1005EA00D4006508E600202B671CFC2AFD2A042B90
:1005FA006708DC0003105C0C0138E700062B0310C7
:10060A00E70C541C092B0A2B0B2BE7170130DC00D3
:10061A00570DD70CD60CD50CD40CDC0B0D2B013096
:10062A00DC005C08E6078312031365086602031CF4
:10063A001F2B202BF92A641B232B242B6D2B6608D6
:10064A00031D282B292B322B0030D7000030D6006F
:10065A000030D5000030D400992C5808D407590826
:10066A0003110318013E03193B2BD5075A0803113E
:10067A000318013E0319422BD6075B08031103181E
:10068A00013E0319492BD707571C4C2B4D2B212C04
:10069A00671C502B512B582B6708DC0003105C0C8D
:1006AA000138E7005A2B0310E70C541C5D2B5E2B14
:1006BA005F2BE7170130DC00570DD70CD60CD50C91
:1006CA00D40CDC0B612B0130DC005C08E607212C22
:1006DA005708803AFF005B08803A7F02031D7F2B90
:1006EA005A085602031D7F2B59085502031D7F2BFA
:1006FA00580854020318822B832BDB2BFF30DC00B3
:10070A00FF30DD00FF30DE00FF30DF005808E00078
:10071A005908E1005A08E2005B08E3005408E002C5
:10072A005508031C550F9A2B9B2BE1025608031CF4
:10073A00560FA02BA12BE2025708031C570FA62B1A
:10074A00A72BE3026008DC0761080318610FAE2BD0
:10075A00AF2BDD0762080318620FB42BB52BDE0737
:10076A0063080318630ADF075F08D7005E08D6002C
:10077A005D08D5005C08D4008030DC005C08E40623
:10078A00E709E70A6708031DCB2BCC2BE92B0130BD
:10079A00D407003003180130D507003003180130A0
:1007AA00D607003003180130D707E92B5808D402BE
:1007BA005908031C590FD5025A08031C5A0FD602AE
:1007CA005B08031C5B0FD7025708560455045404F0
:1007DA00031DF02BF12B1D2C6708031DF52BF62B9F
:1007EA001D2C0030D7000030D6000030D500003074
:1007FA00D400992C0130DC000310D40DD50DD60D90
:10080A00D70DDC0B012CE71F0B2C0C2C0D2C5414D0
:10081A00671C102C112C142C0314E70D162C031032
:10082A00E70D660803191A2C1B2C1D2C0130E60251
:10083A00D61F202C212CFF2BE501E71F252C262C67
:10084A00342C67087F3903192B2C2C2C2F2CE5010B
:10085A00E50A342C541C322C332C342C2C2C6508ED
:10086A000319382C392C6D2C0130D40700300318A9
:10087A000130D507003003180130D60700300318BD
:10088A000130D707571C4A2C4B2C6D2C5408DC001E
:10089A005508DD005608DE005708DF000130E00089
:1008AA005F0DDF0CDE0CDD0CDC0CE00B552C5F0859
:1008BA00D7005E08D6005D08D5005C08D400660A39
:1008CA000319682C692C6D2C0130DC005C08E607E2
:1008DA00660A0319712C722C772C6608031D762C74
:1008EA00772C852C0030D7000030D6000030D50098
:1008FA000030D4006608031D832C842C852CE40167
:10090A00661C882C892C8B2CD6178F2C7F30DC0008
:10091A005C08D6056608DC0003105C0CD700E41FEF
:10092A00972C982C992CD7170800831203132308A5
:10093A008039AD002308A8002807B300A21FA62CFF
:10094A00A72CA82C331433080319AC2CAD2CBC2CBF
:10095A00330A031DB12CB22CBA2C0030A30000308C
:10096A00A2000030A1000030A000A217C42C003061
:10097A00A3000030A2000030A1000030A000270828
:10098A008039A8002808AD062708A8002807B20061
:10099A00A61FD02CD12CD22C321432080319D62CF3
:1009AA00D72CE62C320A031DDB2CDC2CE42C00307D
:1009BA00A7000030A6000030A5000030A400A6174A
:1009CA00EE2C0030A7000030A6000030A500003051
:1009DA00A40032080319F22CF32CF82C3308031D57
:1009EA00F72CF82C012D0030A3000030A2000030B3
:1009FA00A1000030A000DE2F2008F00026080A120D
:100A0A008A1547220A128A11710883120313B90040
:100A1A007008B8003808A800A901AA01AB012B0880
:100A2A00B1002A08B0002908AF002808AE0039082A
:100A3A00A800A901AA01AB012B08B7002A08B60031
:100A4A002908B5002808B4002108F00025080A1270
:100A5A008A1547220A128A11710883120313B900F0
:100A6A007008B8003808A800A901AA01AB01280833
:100A7A00AE07290803110318013E0319452DAF07D4
:100A8A002A0803110318013E03194C2DB0072B083D
:100A9A0003110318013E0319532DB1073908A800A1
:100AAA00A901AA01AB012808B407290803110318F0
:100ABA00013E0319612DB5072A0803110318013EE7
:100ACA000319682DB6072B0803110318013E0319F1
:100ADA006F2DB7072208F00024080A128A15472248
:100AEA000A128A11710883120313B9007008B80038
:100AFA003808A800A901AA01AB012808AE072908ED
:100B0A0003110318013E03198B2DAF072A0803119D
:100B1A000318013E0319922DB0072B08031103187D
:100B2A00013E0319992DB1073908A800A901AA01A4
:100B3A00AB012808B407290803110318013E031959
:100B4A00A72DB5072A0803110318013E0319AE2D74
:100B5A00B6072B0803110318013E0319B52DB70771
:100B6A000830A8000310AE0DAF0DB00DB10DA80BE3
:100B7A00B72D2108F00024080A128A1547220A1202
:100B8A008A11710883120313B9007008B800380873
:100B9A00A8003908A900AA01AB012808AE0729084C
:100BAA0003110318013E0319DB2DAF072A080311AD
:100BBA000318013E0319E22DB0072B08031103188D
:100BCA00013E0319E92DB1072008F00025080A1291
:100BDA008A1547220A128A11710883120313B9006F
:100BEA007008B8003808A8003908A900AA01AB01A2
:100BFA002808AE07290803110318013E0319062E17
:100C0A00AF072A0803110318013E03190D2EB00776
:100C1A002B0803110318013E0319142EB1070830DB
:100C2A00A8000310AE0DAF0DB00DB10DA80B162E16
:100C3A002008F00024080A128A1547220A128A118B
:100C4A00710883120313B9007008B8003808A800A5
:100C5A003908A900AA01AB012808AE07290803111F
:100C6A000318013E03193A2EAF072A080311031885
:100C7A00013E0319412EB0072B0803110318013E48
:100C8A000319482EB1072108F00026080A128A150E
:100C9A0047220A128A11710883120313B9007008D5
:100CAA00B8003808A8003908A900AA01AB01280829
:100CBA00B407290803110318013E0319652EB50765
:100CCA002A0803110318013E03196C2EB6072B08D4
:100CDA0003110318013E0319732EB7072208F00007
:100CEA0025080A128A1547220A128A1171088312E4
:100CFA000313B9007008B8003808A8003908A90019
:100D0A00AA01AB012808B407290803110318013EF8
:100D1A000319902EB5072A0803110318013E031977
:100D2A00972EB6072B0803110318013E03199E2EAE
:100D3A00B7072208F00026080A128A1547220A1263
:100D4A008A11710883120313B9007008B8003808B1
:100D5A00A8003908A900AA01AB0108300310A80DA0
:100D6A00A90DAA0DAB0DFF3E031DB32E2808B4072B
:100D7A00290803110318013E0319C42EB5072A08CE
:100D8A0003110318013E0319CB2EB6072B080311D2
:100D9A000318013E0319D22EB7072E08A8002F0800
:100DAA00A9003008AA003108AB0018300310AB0CB8
:100DBA00AA0CA90CA80CFF3E031DDB2E2808B407B9
:100DCA00290803110318013E0319EC2EB5072A0856
:100DDA0003110318013E0319F32EB6072B0803115A
:100DEA000318013E0319FA2EB7070830A8000310AA
:100DFA00AE0DAF0DB00DB10DA80BFC2E33083207A6
:100E0A00A800A901A90D2808823EB80029080318DC
:100E1A00013EFF3EB9002E2F0130A8000310B40D89
:100E2A00B50DB60DB70DA80B132FB11F1D2F1E2F11
:100E3A001F2F34140130A8000310AE0DAF0DB00DF2
:100E4A00B10DA80B212FFF30B8070318B90AFF30DC
:100E5A00B907B61F312F322F112FB201B11F362F0A
:100E6A00372F532FFF302E05A800FF302F05A9007A
:100E7A00FF303005AA007F303105AB002B082A0469
:100E8A002904280403194A2F4B2F4E2FB201B20A04
:100E9A00532F341C512F522F532F4B2F3208031923
:100EAA00572F582F892F0130B4070030031801300B
:100EBA00B507003003180130B607003003180130B7
:100ECA00B707371C692F6A2F892F3408A8003508FD
:100EDA00A9003608AA003708AB000130AC002B0D78
:100EEA00AB0CAA0CA90CA80CAC0B742F2B08B700DE
:100EFA002A08B6002908B5002808B4000130B80746
:100F0A000318B90A0030B9073908803AFF0080305F
:100F1A007F02031D922FFF303802031C952F962F54
:100F2A00A12F7F3083120313B7008030B600003040
:100F3A00B5000030B400D22F831203133908803A67
:100F4A00FF0080307F02031DAC2F013038020318E6
:100F5A00AF2FB02FBC2F003083120313B70000301D
:100F6A00B6000030B5000030B400AD01D22F8312B4
:100F7A0003133808B300FF30B405FF30B5057F30DE
:100F8A00B6050030B705331CCB2FCC2FCD2FB617A3
:100F9A003308A8000310280CB7002D08A800280859
:100FAA00B7043708A3003608A2003508A1003408A0
:100FBA00A00008008313BA30FD000930FE00CB30D0
:100FCA00FF00A03084000A128A15A2210A128A118F
:100FDA0083160313BA01BB01BC01BD01BE01BF01E7
:100FEA00C001C101C201C301C401C501C601830117
:100FFA000A128A155B2E08308A000408840A8207BE
:10100A00003450344F3454343134203420342034B2
:0A101A0050344F34543432340034A3
:1012C40000300A128A15B1210A128A1501300A1255
:1012D4008A15B1210A128A150800F1007108F0007C
:1012E400F00DF00D831203131F087006C339700646
:1012F4009F001E080800F00083160313981C83291E
:1013040084297E29831203130C1E89298A298C2996
:10131400700899000800831203138C1E92299329E4
:101324008D29981C962997299C291812000083124C
:10133400031318161A0808007E088A007F08820022
:101344000A128A159E210A128A158000840A04084A
:101354007D0603190034FF0A0319FE0AA229F300CB
:1013640083120313081173080A128A1525220A121C
:101374008A158312031388150630F2003030F10009
:10138400F10BC229F20BC229000083120313881146
:101394000800303431343234333434343534363470
:1013A40037343834393456344F344C3431343A3495
:1013B400203456344F344C3432343A3420344334A9
:1013C400503455340034F200F729720884000A12AC
:1013D4008A1500200A128A150A128A157D210A121A
:1013E4008A150130F1007108F207720884000A12AC
:1013F4008A1500200A128A15003A031D022A032ABC
:10140400E7290800F800F601F701192A7608780799
:10141400F5007508840000080A128A156E220A1263
:101424008A150130F6070318F70A0030F707760823
:101434007807F5007508840083130008031D232A28
:10144400242A082A0800F000701C292A2A2A2E2A95
:10145400831203130816312A831203130812F01C93
:10146400342A352A372A8816382A8812701D3B2ACE
:101474003C2A3E2A08173F2A0813F01D422A432A11
:10148400452A8817462A88130800F800F401F50154
:101494007008F200F3017208F6007308F700781C74
:1014A400542A552A5B2A7608F4070318F50A7708A4
:1014B400F50701300310F60DF70DFF3E031D5C2AFE
:1014C4000310F80C7808031D682A692A512A750844
:1014D400F1007408F0000800F40074080F39F200F9
:1014E4007408F039F3008312031308157308F1002C
:1014F40004300310F10CFF3E031D7B2A71080A120D
:101504008A1525220A128A158312031388150D30B1
:10151400F100F10B8B2A83120313881172080A124B
:101524008A1525220A128A158312031388150D3091
:10153400F100F10B9B2A8312031388110800F601B2
:10154400F31FA52AA62AAD2AF209F309F20A031900
:10155400F30AF601F60AF11FB02AB12AB62AF009F5
:10156400F109F00A0319F10A700871040319BB2A7E
:10157400BC2AEB2AF501F50ACA2A01300310F00D42
:10158400F10DFF3E031DC02A0130F4007408F50775
:10159400F11FCD2ACE2ABF2A71087302031DD42A53
:1015A40070087202031CD72AD82ADE2A7008F202B5
:1015B4007108031CF303F30201300310F10CF00C67
:1015C400FF3E031DDF2A0130F502031DEA2AEB2A40
:1015D400CE2A76080319EF2AF02AF52AF209F3092C
:1015E400F20A0319F30A7308F1007208F000080004
:1015F400F601F11FFE2AFF2A062BF009F109F00A71
:101604000319F10AF601F60AF31F092B0A2B132B0F
:10161400F209F309F20A0319F30A0130F400740819
:10162400F606F701F8017008710403191A2B1B2B35
:10163400522BF501F50A292B01300310F00DF10DA1
:10164400FF3E031D1F2B0130F4007408F507F11F42
:101654002C2B2D2B1E2B01300310F70DF80DFF3E04
:10166400031D2E2B71087302031D3A2B700872029E
:10167400031C3D2B3E2B452B7008F2027108031C02
:10168400F303F302771401300310F10CF00CFF3E66
:10169400031D462B0130F502031D512B522B2D2B1C
:1016A40076080319562B572B5C2BF709F809F70A10
:1016B4000319F80A7808F1007708F000080003100D
:1016C400720D730DF9007908031D692B6A2B732BB6
:1016D4000030F3000030F2000030F1000030F00080
:1016E400D62B7008F4007108F5007208F600730830
:1016F400F7001F300310F70CF60CF50CF40CFF3E4A
:10170400031D7C2B7408F800F217FF30F005FF303E
:10171400F105FF30F2050030F3059630F902F91FA8
:10172400942B952BAF2B7908803A973E03189B2B6B
:101734009C2B9D2B6A2B01300310F30CF20CF10C43
:10174400F00CFF3E031D9E2B0130F4007408F907D2
:10175400031DAD2BAE2B9D2BC62B20307902031C11
:10176400B42BB52BC12B6A2B0130F4000310F00D00
:10177400F10DF20DF30DF40BB82B0130F9027908D9
:10178400031DC52BC62BB62B78080319CA2BCB2BEC
:10179400D62BF009F109F209F309F00A0319F10A49
:1017A4000319F20A0319F30A080083160313071333
:1017B4008717BF3083120313D7008030D600003060
:1017C400D5000030D4004230A3008030A2000030A5
:1017D400A1000030A0006808F0006908F100F201DF
:1017E400F30100300A128A15DD240A128A157308DF
:1017F40083120313A7007208A6007108A5007008DD
:10180400A4000A128A119A240A128A158312031355
:101814002308BD002208BC002108BB002008BA0030
:101824004A30C1007430C0002430BF000030BE0014
:101834000A128A116F200A128A15831203133D08B3
:10184400DB003C08DA003B08D9003A08D8000A1249
:101854008A1142220A128A15831203135708ED00D3
:101864005608EC005508EB005408EA006D08F30034
:101874006C08F2006B08F1006A08F0000A128A157D
:1018840061230A128A157008831603139900203005
:10189400980090308312031398000800F600760332
:1018A400031D552C562C732C74087F3EF9007908BF
:1018B400F50004300310F50CFF3E031D5C2C750885
:1018C400F70079080F39F80077080A128A15B12150
:1018D4000A128A1578080A128A15B1210A128A1581
:1018E400DC2C02307606031D782C792C962C740897
:1018F400BF3EF9007908F50004300310F50CFF3EF3
:10190400031D7F2C7508F70079080F39F800770854
:101914000A128A15B1210A128A1578080A128A1540
:10192400B1210A128A15DC2C03307606031D9B2C88
:101934009C2CB92C7408933EF9007908F500043006
:101944000310F50CFF3E031DA22C7508F70079085F
:101954000F39F80077080A128A15B1210A128A157C
:1019640078080A128A15B1210A128A15DC2C04306F
:101974007606031DBE2CBF2CDC2C7408D33EF90064
:101984007908F50004300310F50CFF3E031DC52C47
:101994007508F70079080F39F80077080A128A15D4
:1019A400B1210A128A1578080A128A15B1210A127D
:1019B4008A15DC2C0800F80078080319E22CE32CC3
:1019C400F72CF31FE62CE72CF72C7009FA007109A9
:1019D400FB007209FC007309FD00FA0A0319FB0AF3
:1019E4000319FC0A0319FD0AFF2C7308FD00720891
:1019F400FC007108FB007008FA007308720471049B
:101A04007004031D062D072D102D0030F300003047
:101A1400F2000030F1000030F000942D9630F9000F
:101A2400202D0130F4007408F90701300310FD0C77
:101A3400FC0CFB0CFA0CFF3E031D182DFE307D053B
:101A4400031D252D262D132D422D0130F40074087D
:101A5400F9070130FA07003003180130FB070030A2
:101A640003180130FC07003003180130FD07013072
:101A74000310FD0CFC0CFB0CFA0CFF3E031D3A2D6D
:101A8400FF307D05031D472D482D272D542D013092
:101A9400F9020130F4000310FA0DFB0DFC0DFD0DED
:101AA400F40B4D2DFC1B572D582D5E2D0230790261
:101AB40003185D2D5E2D492D7918612D622D6A2D37
:101AC400FF30FA05FF30FB057F30FC05FF30FD05D4
:101AD4000310F90C7908F400F501F601F701183048
:101AE4000310F40DF50DF60DF70DFF3E031D722DD9
:101AF4007408FA047508FB047608FC047708FD04EE
:101B040078080319862D872D8C2DF31F8A2D8B2D94
:101B14008C2DFD177D08F3007C08F2007B08F10092
:101B24007A08F00008007C0883120313A000A101C6
:101B34000310200DFA00210DFB007B08803AFF0002
:101B440081307F02031DA82DF4307A02031CAB2DD3
:101B5400AC2DB02DF430FA000130FB006430F000FD
:101B64000030F1007B08F3007A08F2000A128A15AB
:101B7400FA220A128A15700883160313C600643009
:101B8400F0000030F1007B08F3007A08F2000A123A
:101B94008A15A1220A128A15700883160313C50038
:101BA4000A30F0000030F100450883120313A0004E
:101BB400A1012008F2002108F3000A128A15FA2272
:101BC4000A128A15700883160313C4000A30F00041
:101BD4000030F100450883120313A000A10120087E
:101BE400F2002108F3000A128A15A1220A128A15AA
:101BF400700883160313C3007D08F40002300A1230
:101C04008A1550240A128A15831603134608A03E27
:101C14008400831300080A128A156E220A128A1598
:101C24002E300A128A156E220A128A15831603139D
:101C34004408A03E8400831300080A128A156E2209
:101C44000A128A15831603134308A03E84008313E3
:101C540000080A128A156E220A128A1583160313C3
:101C64004608A03E8400831300080A128A157D21C9
:101C74000A128A152E300A128A157D210A128A1533
:101C8400831603134408A03E8400831300080A1239
:101C94008A157D210A128A15831603134308A03E70
:101CA4008400831300080A128A157D210A128A15FA
:101CB4000800803083120313E8002530E9000A127B
:101CC4008A15D7230A128A150A128A158D210A1237
:101CD4008A1583160313C7002B304706031D732E82
:101CE400742E7D2E013083120313EE006E088316CA
:101CF4000313BE07852E2D304706031D822E832E27
:101D0400852E0130BE020F178F120F120F14831687
:101D1400031789010330880083160313880189019E
:101D2400033085008312031388018901850183161A
:101D34000313C301C401C2013F30831203139F057F
:101D4400C3309F051F14413083120313EE00EE0BC2
:101D5400A92EAC2E831203139F14831603139F1210
:101D64001F129F131812181583160317871519309D
:101D74008316031399009A018312031398171813F7
:101D840018168316031398168B170B178312031355
:101D94008C12831603138C16203083120313EE0067
:101DA400EE0BD22E00000A128A1105200A128A159F
:101DB400203083120313EE00EE0BDE2E0000F4013C
:101DC400F40A01300A128A1550240A128A152030A6
:101DD40083120313EE00EE0BED2E0000AA300A125C
:101DE4008A1504220A128A15203083120313EE0086
:101DF400EE0BFA2E000001300A128A15E5210A12B0
:101E04008A150D300A128A157D210A128A150030AE
:101E1400FA00FB00831603134108FC00FD01FD0AD0
:101E24000A128A1595250A128A1520300A128A1573
:101E34007D210A128A1520300A128A157D210A1280
:101E44008A1520300A128A157D210A128A1500305B
:101E5400FA00FB00831603134008FC000730FD0062
:101E64000A128A1595250A128A150D300A128A1546
:101E74007D210A128A150D300A128A157D210A1253
:101E84008A156430F0000030F100831603133E0815
:101E940083120313EE00EF016E08F2006F08F300E3
:101EA4000A128A15FA220A128A1570088316031375
:101EB400C6006430F0000030F1003E0883120313C2
:101EC400EE00EF016E08F2006F08F3000A128A15A3
:101ED400A1220A128A15700883160313C5000A305A
:101EE400F0000030F100450883120313EE00EF0107
:101EF4006E08F2006F08F3000A128A15FA220A1219
:101F04008A15700883160313C4000A30F0000030E9
:101F1400F100450883120313EE00EF016E08F2008E
:101F24006F08F3000A128A15A1220A128A15700892
:101F340083160313C3000D30F40002300A128A150D
:101F440050240A128A15831603134608A03E8400FF
:101F5400831300080A128A156E220A128A15831640
:101F640003134408A03E8400831300080A128A1550
:101F74006E220A128A15831603134308A03E8400B6
:101F8400831300080A128A156E220A128A15831214
:101F940003130C1FCE2FCF2FFD2E831603134208DD
:101FA400031DD52FD62FE22F00300A128A156F2178
:101FB4000A128A1583160313C000C201C20AF12F44
:101FC4004203031DE62FE72FF12F01300A128A1571
:101FD4006F210A128A1583160313C100C20141300E
:101FE40083120313EE00EE0BF52FF82F8312031365
:0C1FF4000C139F14FD2E0A128A11002805
:08400000FF3FFF3FFF3FFF3FC0
:04400E00D420FF3F7C
:00000001FF
