:060000000A128A110E280D
:10000800FE00030EF5000408F6000A08F7000A12BD
:100018008A111E280A128A111128F801F901FA0119
:10002800FB01FC0183120313A001A10183010A1241
:100038008A114B29831203130C1F232824283328E1
:1000480008300A128A115F210A128A11F800083052
:10005800F300F30B2D28831203130C139F140B1CAE
:10006800362837285E2806183A283B283D28FC0100
:10007800FC0A8618402841284328FB01FB0A061C75
:100088004628472851287C03031D4B284C28512813
:10009800FC010130F30073088807861C5428552892
:1000A8005D287B03031D59285A285D28FB01013070
:1000B80088020B100B1D61286228A52878080F39C3
:1000C800F9007808F039FA007A08F30004300310D0
:1000D800F30CFF3E031D6B287308FA007A080A1216
:1000E8008A11AE200A128A1183120313A10079081B
:1000F8000A128A11AE200A128A1183120313A00071
:1001080092288901210887000914FD01FD0AA22807
:100118008901200887008914FD01A2287D08F300C1
:10012800F4017408003A03199A28A2287308003ABF
:1001380003198528013A03198C28A2280B1183304A
:10014800810077088A0076088400750E8300FE0E09
:100158007E0E0900F200D0283F300A2906300A290D
:100168005B300A294F300A2966300A296D300A297E
:100178007D300A2907300A297F300A296F300A2979
:1001880077300A297C300A2939300A295E300A2951
:1001980079300A2971300A297208F000F1017108D2
:1001A800003A0319D8280A297008003A0319B02818
:1001B800013A0319B228033A0319B428013A03197A
:1001C800B628073A0319B828013A0319BA28033A96
:1001D8000319BC28013A0319BE280F3A0319C0288D
:1001E800013A0319C228033A0319C428013A03192A
:1001F800C628073A0319C828013A0319CA28033A36
:100208000319CC28013A0319CE280A2908008316B5
:100218000317890109148801073083160313860020
:1002280085018701880189018113151495148312AA
:100238000313880186013F3087000130890085015A
:10024800FD01FD0AF901FA01831603131614961429
:100258003F30831203139F059F161F129F111F1112
:100268001F149F14831603139F121F129F138112CA
:10027800811101118110011483308312031381004D
:100288000B118B178B168B150B100B1708000A1206
:100298008A110B210A128A117808831203130802A3
:1002A8000318572958295A29051450290510502987
:1002B8000A128A110E28F1007108F000F00DF00DF5
:1002C800831203131F087006C33970069F001E08A7
:0202D80008001C
:08400000FF3FFF3FFF3FFF3FC0
:04400E00D420FF3F7C
:00000001FF
